{
  "_format": "hh-sol-artifact-1",
  "contractName": "NFTDiarias",
  "sourceName": "contracts/NFTDiarias.sol",
  "abi": [
    {
      "inputs": [],
      "stateMutability": "nonpayable",
      "type": "constructor"
    },
    {
      "inputs": [
        {
          "internalType": "address",
          "name": "sender",
          "type": "address"
        },
        {
          "internalType": "uint256",
          "name": "tokenId",
          "type": "uint256"
        },
        {
          "internalType": "address",
          "name": "owner",
          "type": "address"
        }
      ],
      "name": "ERC721IncorrectOwner",
      "type": "error"
    },
    {
      "inputs": [
        {
          "internalType": "address",
          "name": "operator",
          "type": "address"
        },
        {
          "internalType": "uint256",
          "name": "tokenId",
          "type": "uint256"
        }
      ],
      "name": "ERC721InsufficientApproval",
      "type": "error"
    },
    {
      "inputs": [
        {
          "internalType": "address",
          "name": "approver",
          "type": "address"
        }
      ],
      "name": "ERC721InvalidApprover",
      "type": "error"
    },
    {
      "inputs": [
        {
          "internalType": "address",
          "name": "operator",
          "type": "address"
        }
      ],
      "name": "ERC721InvalidOperator",
      "type": "error"
    },
    {
      "inputs": [
        {
          "internalType": "address",
          "name": "owner",
          "type": "address"
        }
      ],
      "name": "ERC721InvalidOwner",
      "type": "error"
    },
    {
      "inputs": [
        {
          "internalType": "address",
          "name": "receiver",
          "type": "address"
        }
      ],
      "name": "ERC721InvalidReceiver",
      "type": "error"
    },
    {
      "inputs": [
        {
          "internalType": "address",
          "name": "sender",
          "type": "address"
        }
      ],
      "name": "ERC721InvalidSender",
      "type": "error"
    },
    {
      "inputs": [
        {
          "internalType": "uint256",
          "name": "tokenId",
          "type": "uint256"
        }
      ],
      "name": "ERC721NonexistentToken",
      "type": "error"
    },
    {
      "inputs": [
        {
          "internalType": "address",
          "name": "owner",
          "type": "address"
        }
      ],
      "name": "OwnableInvalidOwner",
      "type": "error"
    },
    {
      "inputs": [
        {
          "internalType": "address",
          "name": "account",
          "type": "address"
        }
      ],
      "name": "OwnableUnauthorizedAccount",
      "type": "error"
    },
    {
      "anonymous": false,
      "inputs": [
        {
          "indexed": true,
          "internalType": "address",
          "name": "owner",
          "type": "address"
        },
        {
          "indexed": true,
          "internalType": "address",
          "name": "approved",
          "type": "address"
        },
        {
          "indexed": true,
          "internalType": "uint256",
          "name": "tokenId",
          "type": "uint256"
        }
      ],
      "name": "Approval",
      "type": "event"
    },
    {
      "anonymous": false,
      "inputs": [
        {
          "indexed": true,
          "internalType": "address",
          "name": "owner",
          "type": "address"
        },
        {
          "indexed": true,
          "internalType": "address",
          "name": "operator",
          "type": "address"
        },
        {
          "indexed": false,
          "internalType": "bool",
          "name": "approved",
          "type": "bool"
        }
      ],
      "name": "ApprovalForAll",
      "type": "event"
    },
    {
      "anonymous": false,
      "inputs": [
        {
          "indexed": false,
          "internalType": "uint256",
          "name": "_fromTokenId",
          "type": "uint256"
        },
        {
          "indexed": false,
          "internalType": "uint256",
          "name": "_toTokenId",
          "type": "uint256"
        }
      ],
      "name": "BatchMetadataUpdate",
      "type": "event"
    },
    {
      "anonymous": false,
      "inputs": [
        {
          "indexed": false,
          "internalType": "uint256",
          "name": "_tokenId",
          "type": "uint256"
        }
      ],
      "name": "MetadataUpdate",
      "type": "event"
    },
    {
      "anonymous": false,
      "inputs": [
        {
          "indexed": true,
          "internalType": "address",
          "name": "previousOwner",
          "type": "address"
        },
        {
          "indexed": true,
          "internalType": "address",
          "name": "newOwner",
          "type": "address"
        }
      ],
      "name": "OwnershipTransferred",
      "type": "event"
    },
    {
      "anonymous": false,
      "inputs": [
        {
          "indexed": true,
          "internalType": "address",
          "name": "from",
          "type": "address"
        },
        {
          "indexed": true,
          "internalType": "address",
          "name": "to",
          "type": "address"
        },
        {
          "indexed": true,
          "internalType": "uint256",
          "name": "tokenId",
          "type": "uint256"
        }
      ],
      "name": "Transfer",
      "type": "event"
    },
    {
      "inputs": [
        {
          "internalType": "address",
          "name": "to",
          "type": "address"
        },
        {
          "internalType": "uint256",
          "name": "tokenId",
          "type": "uint256"
        }
      ],
      "name": "approve",
      "outputs": [],
      "stateMutability": "nonpayable",
      "type": "function"
    },
    {
      "inputs": [
        {
          "internalType": "address",
          "name": "owner",
          "type": "address"
        }
      ],
      "name": "balanceOf",
      "outputs": [
        {
          "internalType": "uint256",
          "name": "",
          "type": "uint256"
        }
      ],
      "stateMutability": "view",
      "type": "function"
    },
    {
      "inputs": [
        {
          "internalType": "uint256",
          "name": "tokenId",
          "type": "uint256"
        }
      ],
      "name": "getApproved",
      "outputs": [
        {
          "internalType": "address",
          "name": "",
          "type": "address"
        }
      ],
      "stateMutability": "view",
      "type": "function"
    },
    {
      "inputs": [
        {
          "internalType": "address",
          "name": "owner",
          "type": "address"
        },
        {
          "internalType": "address",
          "name": "operator",
          "type": "address"
        }
      ],
      "name": "isApprovedForAll",
      "outputs": [
        {
          "internalType": "bool",
          "name": "",
          "type": "bool"
        }
      ],
      "stateMutability": "view",
      "type": "function"
    },
    {
      "inputs": [
        {
          "internalType": "address",
          "name": "to",
          "type": "address"
        },
        {
          "internalType": "string",
          "name": "tokenURI",
          "type": "string"
        }
      ],
      "name": "mintNFT",
      "outputs": [
        {
          "internalType": "uint256",
          "name": "",
          "type": "uint256"
        }
      ],
      "stateMutability": "nonpayable",
      "type": "function"
    },
    {
      "inputs": [],
      "name": "name",
      "outputs": [
        {
          "internalType": "string",
          "name": "",
          "type": "string"
        }
      ],
      "stateMutability": "view",
      "type": "function"
    },
    {
      "inputs": [],
      "name": "owner",
      "outputs": [
        {
          "internalType": "address",
          "name": "",
          "type": "address"
        }
      ],
      "stateMutability": "view",
      "type": "function"
    },
    {
      "inputs": [
        {
          "internalType": "uint256",
          "name": "tokenId",
          "type": "uint256"
        }
      ],
      "name": "ownerOf",
      "outputs": [
        {
          "internalType": "address",
          "name": "",
          "type": "address"
        }
      ],
      "stateMutability": "view",
      "type": "function"
    },
    {
      "inputs": [],
      "name": "renounceOwnership",
      "outputs": [],
      "stateMutability": "nonpayable",
      "type": "function"
    },
    {
      "inputs": [
        {
          "internalType": "address",
          "name": "from",
          "type": "address"
        },
        {
          "internalType": "address",
          "name": "to",
          "type": "address"
        },
        {
          "internalType": "uint256",
          "name": "tokenId",
          "type": "uint256"
        }
      ],
      "name": "safeTransferFrom",
      "outputs": [],
      "stateMutability": "nonpayable",
      "type": "function"
    },
    {
      "inputs": [
        {
          "internalType": "address",
          "name": "from",
          "type": "address"
        },
        {
          "internalType": "address",
          "name": "to",
          "type": "address"
        },
        {
          "internalType": "uint256",
          "name": "tokenId",
          "type": "uint256"
        },
        {
          "internalType": "bytes",
          "name": "data",
          "type": "bytes"
        }
      ],
      "name": "safeTransferFrom",
      "outputs": [],
      "stateMutability": "nonpayable",
      "type": "function"
    },
    {
      "inputs": [
        {
          "internalType": "address",
          "name": "operator",
          "type": "address"
        },
        {
          "internalType": "bool",
          "name": "approved",
          "type": "bool"
        }
      ],
      "name": "setApprovalForAll",
      "outputs": [],
      "stateMutability": "nonpayable",
      "type": "function"
    },
    {
      "inputs": [
        {
          "internalType": "bytes4",
          "name": "interfaceId",
          "type": "bytes4"
        }
      ],
      "name": "supportsInterface",
      "outputs": [
        {
          "internalType": "bool",
          "name": "",
          "type": "bool"
        }
      ],
      "stateMutability": "view",
      "type": "function"
    },
    {
      "inputs": [],
      "name": "symbol",
      "outputs": [
        {
          "internalType": "string",
          "name": "",
          "type": "string"
        }
      ],
      "stateMutability": "view",
      "type": "function"
    },
    {
      "inputs": [],
      "name": "tokenCount",
      "outputs": [
        {
          "internalType": "uint256",
          "name": "",
          "type": "uint256"
        }
      ],
      "stateMutability": "view",
      "type": "function"
    },
    {
      "inputs": [
        {
          "internalType": "uint256",
          "name": "tokenId",
          "type": "uint256"
        }
      ],
      "name": "tokenURI",
      "outputs": [
        {
          "internalType": "string",
          "name": "",
          "type": "string"
        }
      ],
      "stateMutability": "view",
      "type": "function"
    },
    {
      "inputs": [
        {
          "internalType": "address",
          "name": "from",
          "type": "address"
        },
        {
          "internalType": "address",
          "name": "to",
          "type": "address"
        },
        {
          "internalType": "uint256",
          "name": "tokenId",
          "type": "uint256"
        }
      ],
      "name": "transferFrom",
      "outputs": [],
      "stateMutability": "nonpayable",
      "type": "function"
    },
    {
      "inputs": [
        {
          "internalType": "address",
          "name": "newOwner",
          "type": "address"
        }
      ],
      "name": "transferOwnership",
      "outputs": [],
      "stateMutability": "nonpayable",
      "type": "function"
    }
  ],
  "bytecode": "0x608060405234801561001057600080fd5b50336040518060400160405280600a81526020017f4e465444696172696173000000000000000000000000000000000000000000008152506040518060400160405280600481526020017f4e46544400000000000000000000000000000000000000000000000000000000815250816000908161008d919061043d565b50806001908161009d919061043d565b505050600073ffffffffffffffffffffffffffffffffffffffff168173ffffffffffffffffffffffffffffffffffffffff16036101125760006040517f1e4fbdf70000000000000000000000000000000000000000000000000000000081526004016101099190610550565b60405180910390fd5b6101218161012760201b60201c565b5061056b565b6000600760009054906101000a900473ffffffffffffffffffffffffffffffffffffffff16905081600760006101000a81548173ffffffffffffffffffffffffffffffffffffffff021916908373ffffffffffffffffffffffffffffffffffffffff1602179055508173ffffffffffffffffffffffffffffffffffffffff168173ffffffffffffffffffffffffffffffffffffffff167f8be0079c531659141344cd1fd0a4f28419497f9722a3daafe3b4186f6b6457e060405160405180910390a35050565b600081519050919050565b7f4e487b7100000000000000000000000000000000000000000000000000000000600052604160045260246000fd5b7f4e487b7100000000000000000000000000000000000000000000000000000000600052602260045260246000fd5b6000600282049050600182168061026e57607f821691505b60208210810361028157610280610227565b5b50919050565b60008190508160005260206000209050919050565b60006020601f8301049050919050565b600082821b905092915050565b6000600883026102e97fffffffffffffffffffffffffffffffffffffffffffffffffffffffffffffffff826102ac565b6102f386836102ac565b95508019841693508086168417925050509392505050565b6000819050919050565b6000819050919050565b600061033a6103356103308461030b565b610315565b61030b565b9050919050565b6000819050919050565b6103548361031f565b61036861036082610341565b8484546102b9565b825550505050565b600090565b61037d610370565b61038881848461034b565b505050565b5b818110156103ac576103a1600082610375565b60018101905061038e565b5050565b601f8211156103f1576103c281610287565b6103cb8461029c565b810160208510156103da578190505b6103ee6103e68561029c565b83018261038d565b50505b505050565b600082821c905092915050565b6000610414600019846008026103f6565b1980831691505092915050565b600061042d8383610403565b9150826002028217905092915050565b610446826101ed565b67ffffffffffffffff81111561045f5761045e6101f8565b5b6104698254610256565b6104748282856103b0565b600060209050601f8311600181146104a75760008415610495578287015190505b61049f8582610421565b865550610507565b601f1984166104b586610287565b60005b828110156104dd578489015182556001820191506020850194506020810190506104b8565b868310156104fa57848901516104f6601f891682610403565b8355505b6001600288020188555050505b505050505050565b600073ffffffffffffffffffffffffffffffffffffffff82169050919050565b600061053a8261050f565b9050919050565b61054a8161052f565b82525050565b60006020820190506105656000830184610541565b92915050565b61265e8061057a6000396000f3fe608060405234801561001057600080fd5b50600436106101165760003560e01c80638da5cb5b116100a2578063b88d4fde11610071578063b88d4fde146102cd578063c87b56dd146102e9578063e985e9c514610319578063eacabe1414610349578063f2fde38b1461037957610116565b80638da5cb5b1461025757806395d89b41146102755780639f181b5e14610293578063a22cb465146102b157610116565b806323b872dd116100e957806323b872dd146101b557806342842e0e146101d15780636352211e146101ed57806370a082311461021d578063715018a61461024d57610116565b806301ffc9a71461011b57806306fdde031461014b578063081812fc14610169578063095ea7b314610199575b600080fd5b61013560048036038101906101309190611aca565b610395565b6040516101429190611b12565b60405180910390f35b6101536103f6565b6040516101609190611bbd565b60405180910390f35b610183600480360381019061017e9190611c15565b610488565b6040516101909190611c83565b60405180910390f35b6101b360048036038101906101ae9190611cca565b6104a4565b005b6101cf60048036038101906101ca9190611d0a565b6104ba565b005b6101eb60048036038101906101e69190611d0a565b6105bc565b005b61020760048036038101906102029190611c15565b6105dc565b6040516102149190611c83565b60405180910390f35b61023760048036038101906102329190611d5d565b6105ee565b6040516102449190611d99565b60405180910390f35b6102556106a8565b005b61025f6106bc565b60405161026c9190611c83565b60405180910390f35b61027d6106e6565b60405161028a9190611bbd565b60405180910390f35b61029b610778565b6040516102a89190611d99565b60405180910390f35b6102cb60048036038101906102c69190611de0565b61077e565b005b6102e760048036038101906102e29190611f55565b610794565b005b61030360048036038101906102fe9190611c15565b6107b9565b6040516103109190611bbd565b60405180910390f35b610333600480360381019061032e9190611fd8565b6108cc565b6040516103409190611b12565b60405180910390f35b610363600480360381019061035e91906120b9565b610960565b6040516103709190611d99565b60405180910390f35b610393600480360381019061038e9190611d5d565b6109a9565b005b6000634906490660e01b7bffffffffffffffffffffffffffffffffffffffffffffffffffffffff1916827bffffffffffffffffffffffffffffffffffffffffffffffffffffffff191614806103ef57506103ee82610a2f565b5b9050919050565b60606000805461040590612144565b80601f016020809104026020016040519081016040528092919081815260200182805461043190612144565b801561047e5780601f106104535761010080835404028352916020019161047e565b820191906000526020600020905b81548152906001019060200180831161046157829003601f168201915b5050505050905090565b600061049382610b11565b5061049d82610b99565b9050919050565b6104b682826104b1610bd6565b610bde565b5050565b600073ffffffffffffffffffffffffffffffffffffffff168273ffffffffffffffffffffffffffffffffffffffff160361052c5760006040517f64a0ae920000000000000000000000000000000000000000000000000000000081526004016105239190611c83565b60405180910390fd5b6000610540838361053b610bd6565b610bf0565b90508373ffffffffffffffffffffffffffffffffffffffff168173ffffffffffffffffffffffffffffffffffffffff16146105b6578382826040517f64283d7b0000000000000000000000000000000000000000000000000000000081526004016105ad93929190612175565b60405180910390fd5b50505050565b6105d783838360405180602001604052806000815250610794565b505050565b60006105e782610b11565b9050919050565b60008073ffffffffffffffffffffffffffffffffffffffff168273ffffffffffffffffffffffffffffffffffffffff16036106615760006040517f89c62b640000000000000000000000000000000000000000000000000000000081526004016106589190611c83565b60405180910390fd5b600360008373ffffffffffffffffffffffffffffffffffffffff1673ffffffffffffffffffffffffffffffffffffffff168152602001908152602001600020549050919050565b6106b0610e0a565b6106ba6000610e91565b565b6000600760009054906101000a900473ffffffffffffffffffffffffffffffffffffffff16905090565b6060600180546106f590612144565b80601f016020809104026020016040519081016040528092919081815260200182805461072190612144565b801561076e5780601f106107435761010080835404028352916020019161076e565b820191906000526020600020905b81548152906001019060200180831161075157829003601f168201915b5050505050905090565b60085481565b610790610789610bd6565b8383610f57565b5050565b61079f8484846104ba565b6107b36107aa610bd6565b858585856110c6565b50505050565b60606107c482610b11565b5060006006600084815260200190815260200160002080546107e590612144565b80601f016020809104026020016040519081016040528092919081815260200182805461081190612144565b801561085e5780601f106108335761010080835404028352916020019161085e565b820191906000526020600020905b81548152906001019060200180831161084157829003601f168201915b50505050509050600061086f611277565b905060008151036108845781925050506108c7565b6000825111156108b95780826040516020016108a19291906121e8565b604051602081830303815290604052925050506108c7565b6108c28461128e565b925050505b919050565b6000600560008473ffffffffffffffffffffffffffffffffffffffff1673ffffffffffffffffffffffffffffffffffffffff16815260200190815260200160002060008373ffffffffffffffffffffffffffffffffffffffff1673ffffffffffffffffffffffffffffffffffffffff16815260200190815260200160002060009054906101000a900460ff16905092915050565b600061096a610e0a565b60016008600082825461097d919061223b565b925050819055506000600854905061099584826112f7565b61099f81846113f0565b8091505092915050565b6109b1610e0a565b600073ffffffffffffffffffffffffffffffffffffffff168173ffffffffffffffffffffffffffffffffffffffff1603610a235760006040517f1e4fbdf7000000000000000000000000000000000000000000000000000000008152600401610a1a9190611c83565b60405180910390fd5b610a2c81610e91565b50565b60007f80ac58cd000000000000000000000000000000000000000000000000000000007bffffffffffffffffffffffffffffffffffffffffffffffffffffffff1916827bffffffffffffffffffffffffffffffffffffffffffffffffffffffff19161480610afa57507f5b5e139f000000000000000000000000000000000000000000000000000000007bffffffffffffffffffffffffffffffffffffffffffffffffffffffff1916827bffffffffffffffffffffffffffffffffffffffffffffffffffffffff1916145b80610b0a5750610b098261144c565b5b9050919050565b600080610b1d836114b6565b9050600073ffffffffffffffffffffffffffffffffffffffff168173ffffffffffffffffffffffffffffffffffffffff1603610b9057826040517f7e273289000000000000000000000000000000000000000000000000000000008152600401610b879190611d99565b60405180910390fd5b80915050919050565b60006004600083815260200190815260200160002060009054906101000a900473ffffffffffffffffffffffffffffffffffffffff169050919050565b600033905090565b610beb83838360016114f3565b505050565b600080610bfc846114b6565b9050600073ffffffffffffffffffffffffffffffffffffffff168373ffffffffffffffffffffffffffffffffffffffff1614610c3e57610c3d8184866116b8565b5b600073ffffffffffffffffffffffffffffffffffffffff168173ffffffffffffffffffffffffffffffffffffffff1614610ccf57610c806000856000806114f3565b6001600360008373ffffffffffffffffffffffffffffffffffffffff1673ffffffffffffffffffffffffffffffffffffffff168152602001908152602001600020600082825403925050819055505b600073ffffffffffffffffffffffffffffffffffffffff168573ffffffffffffffffffffffffffffffffffffffff1614610d52576001600360008773ffffffffffffffffffffffffffffffffffffffff1673ffffffffffffffffffffffffffffffffffffffff168152602001908152602001600020600082825401925050819055505b846002600086815260200190815260200160002060006101000a81548173ffffffffffffffffffffffffffffffffffffffff021916908373ffffffffffffffffffffffffffffffffffffffff160217905550838573ffffffffffffffffffffffffffffffffffffffff168273ffffffffffffffffffffffffffffffffffffffff167fddf252ad1be2c89b69c2b068fc378daa952ba7f163c4a11628f55a4df523b3ef60405160405180910390a4809150509392505050565b610e12610bd6565b73ffffffffffffffffffffffffffffffffffffffff16610e306106bc565b73ffffffffffffffffffffffffffffffffffffffff1614610e8f57610e53610bd6565b6040517f118cdaa7000000000000000000000000000000000000000000000000000000008152600401610e869190611c83565b60405180910390fd5b565b6000600760009054906101000a900473ffffffffffffffffffffffffffffffffffffffff16905081600760006101000a81548173ffffffffffffffffffffffffffffffffffffffff021916908373ffffffffffffffffffffffffffffffffffffffff1602179055508173ffffffffffffffffffffffffffffffffffffffff168173ffffffffffffffffffffffffffffffffffffffff167f8be0079c531659141344cd1fd0a4f28419497f9722a3daafe3b4186f6b6457e060405160405180910390a35050565b600073ffffffffffffffffffffffffffffffffffffffff168273ffffffffffffffffffffffffffffffffffffffff1603610fc857816040517f5b08ba18000000000000000000000000000000000000000000000000000000008152600401610fbf9190611c83565b60405180910390fd5b80600560008573ffffffffffffffffffffffffffffffffffffffff1673ffffffffffffffffffffffffffffffffffffffff16815260200190815260200160002060008473ffffffffffffffffffffffffffffffffffffffff1673ffffffffffffffffffffffffffffffffffffffff16815260200190815260200160002060006101000a81548160ff0219169083151502179055508173ffffffffffffffffffffffffffffffffffffffff168373ffffffffffffffffffffffffffffffffffffffff167f17307eab39ab6107e8899845ad3d59bd9653f200f220920489ca2b5937696c31836040516110b99190611b12565b60405180910390a3505050565b60008373ffffffffffffffffffffffffffffffffffffffff163b1115611270578273ffffffffffffffffffffffffffffffffffffffff1663150b7a02868685856040518563ffffffff1660e01b815260040161112594939291906122c4565b6020604051808303816000875af192505050801561116157506040513d601f19601f8201168201806040525081019061115e9190612325565b60015b6111e5573d8060008114611191576040519150601f19603f3d011682016040523d82523d6000602084013e611196565b606091505b5060008151036111dd57836040517f64a0ae920000000000000000000000000000000000000000000000000000000081526004016111d49190611c83565b60405180910390fd5b805160208201fd5b63150b7a0260e01b7bffffffffffffffffffffffffffffffffffffffffffffffffffffffff1916817bffffffffffffffffffffffffffffffffffffffffffffffffffffffff19161461126e57836040517f64a0ae920000000000000000000000000000000000000000000000000000000081526004016112659190611c83565b60405180910390fd5b505b5050505050565b606060405180602001604052806000815250905090565b606061129982610b11565b5060006112a4611277565b905060008151116112c457604051806020016040528060008152506112ef565b806112ce8461177c565b6040516020016112df9291906121e8565b6040516020818303038152906040525b915050919050565b600073ffffffffffffffffffffffffffffffffffffffff168273ffffffffffffffffffffffffffffffffffffffff16036113695760006040517f64a0ae920000000000000000000000000000000000000000000000000000000081526004016113609190611c83565b60405180910390fd5b600061137783836000610bf0565b9050600073ffffffffffffffffffffffffffffffffffffffff168173ffffffffffffffffffffffffffffffffffffffff16146113eb5760006040517f73c6ac6e0000000000000000000000000000000000000000000000000000000081526004016113e29190611c83565b60405180910390fd5b505050565b8060066000848152602001908152602001600020908161141091906124fe565b507ff8e1a15aba9398e019f0b49df1a4fde98ee17ae345cb5f6b5e2c27f5033e8ce7826040516114409190611d99565b60405180910390a15050565b60007f01ffc9a7000000000000000000000000000000000000000000000000000000007bffffffffffffffffffffffffffffffffffffffffffffffffffffffff1916827bffffffffffffffffffffffffffffffffffffffffffffffffffffffff1916149050919050565b60006002600083815260200190815260200160002060009054906101000a900473ffffffffffffffffffffffffffffffffffffffff169050919050565b808061152c5750600073ffffffffffffffffffffffffffffffffffffffff168273ffffffffffffffffffffffffffffffffffffffff1614155b1561166057600061153c84610b11565b9050600073ffffffffffffffffffffffffffffffffffffffff168373ffffffffffffffffffffffffffffffffffffffff16141580156115a757508273ffffffffffffffffffffffffffffffffffffffff168173ffffffffffffffffffffffffffffffffffffffff1614155b80156115ba57506115b881846108cc565b155b156115fc57826040517fa9fbf51f0000000000000000000000000000000000000000000000000000000081526004016115f39190611c83565b60405180910390fd5b811561165e57838573ffffffffffffffffffffffffffffffffffffffff168273ffffffffffffffffffffffffffffffffffffffff167f8c5be1e5ebec7d5bd14f71427d1e84f3dd0314c0f7b2291e5b200ac8c7c3b92560405160405180910390a45b505b836004600085815260200190815260200160002060006101000a81548173ffffffffffffffffffffffffffffffffffffffff021916908373ffffffffffffffffffffffffffffffffffffffff16021790555050505050565b6116c383838361184a565b61177757600073ffffffffffffffffffffffffffffffffffffffff168373ffffffffffffffffffffffffffffffffffffffff160361173857806040517f7e27328900000000000000000000000000000000000000000000000000000000815260040161172f9190611d99565b60405180910390fd5b81816040517f177e802f00000000000000000000000000000000000000000000000000000000815260040161176e9291906125d0565b60405180910390fd5b505050565b60606000600161178b8461190b565b01905060008167ffffffffffffffff8111156117aa576117a9611e2a565b5b6040519080825280601f01601f1916602001820160405280156117dc5781602001600182028036833780820191505090505b509050600082602083010190505b60011561183f578080600190039150507f3031323334353637383961626364656600000000000000000000000000000000600a86061a8153600a8581611833576118326125f9565b5b049450600085036117ea575b819350505050919050565b60008073ffffffffffffffffffffffffffffffffffffffff168373ffffffffffffffffffffffffffffffffffffffff161415801561190257508273ffffffffffffffffffffffffffffffffffffffff168473ffffffffffffffffffffffffffffffffffffffff1614806118c357506118c284846108cc565b5b8061190157508273ffffffffffffffffffffffffffffffffffffffff166118e983610b99565b73ffffffffffffffffffffffffffffffffffffffff16145b5b90509392505050565b600080600090507a184f03e93ff9f4daa797ed6e38ed64bf6a1f0100000000000000008310611969577a184f03e93ff9f4daa797ed6e38ed64bf6a1f010000000000000000838161195f5761195e6125f9565b5b0492506040810190505b6d04ee2d6d415b85acef810000000083106119a6576d04ee2d6d415b85acef8100000000838161199c5761199b6125f9565b5b0492506020810190505b662386f26fc1000083106119d557662386f26fc1000083816119cb576119ca6125f9565b5b0492506010810190505b6305f5e10083106119fe576305f5e10083816119f4576119f36125f9565b5b0492506008810190505b6127108310611a23576127108381611a1957611a186125f9565b5b0492506004810190505b60648310611a465760648381611a3c57611a3b6125f9565b5b0492506002810190505b600a8310611a55576001810190505b80915050919050565b6000604051905090565b600080fd5b600080fd5b60007fffffffff0000000000000000000000000000000000000000000000000000000082169050919050565b611aa781611a72565b8114611ab257600080fd5b50565b600081359050611ac481611a9e565b92915050565b600060208284031215611ae057611adf611a68565b5b6000611aee84828501611ab5565b91505092915050565b60008115159050919050565b611b0c81611af7565b82525050565b6000602082019050611b276000830184611b03565b92915050565b600081519050919050565b600082825260208201905092915050565b60005b83811015611b67578082015181840152602081019050611b4c565b60008484015250505050565b6000601f19601f8301169050919050565b6000611b8f82611b2d565b611b998185611b38565b9350611ba9818560208601611b49565b611bb281611b73565b840191505092915050565b60006020820190508181036000830152611bd78184611b84565b905092915050565b6000819050919050565b611bf281611bdf565b8114611bfd57600080fd5b50565b600081359050611c0f81611be9565b92915050565b600060208284031215611c2b57611c2a611a68565b5b6000611c3984828501611c00565b91505092915050565b600073ffffffffffffffffffffffffffffffffffffffff82169050919050565b6000611c6d82611c42565b9050919050565b611c7d81611c62565b82525050565b6000602082019050611c986000830184611c74565b92915050565b611ca781611c62565b8114611cb257600080fd5b50565b600081359050611cc481611c9e565b92915050565b60008060408385031215611ce157611ce0611a68565b5b6000611cef85828601611cb5565b9250506020611d0085828601611c00565b9150509250929050565b600080600060608486031215611d2357611d22611a68565b5b6000611d3186828701611cb5565b9350506020611d4286828701611cb5565b9250506040611d5386828701611c00565b9150509250925092565b600060208284031215611d7357611d72611a68565b5b6000611d8184828501611cb5565b91505092915050565b611d9381611bdf565b82525050565b6000602082019050611dae6000830184611d8a565b92915050565b611dbd81611af7565b8114611dc857600080fd5b50565b600081359050611dda81611db4565b92915050565b60008060408385031215611df757611df6611a68565b5b6000611e0585828601611cb5565b9250506020611e1685828601611dcb565b9150509250929050565b600080fd5b600080fd5b7f4e487b7100000000000000000000000000000000000000000000000000000000600052604160045260246000fd5b611e6282611b73565b810181811067ffffffffffffffff82111715611e8157611e80611e2a565b5b80604052505050565b6000611e94611a5e565b9050611ea08282611e59565b919050565b600067ffffffffffffffff821115611ec057611ebf611e2a565b5b611ec982611b73565b9050602081019050919050565b82818337600083830152505050565b6000611ef8611ef384611ea5565b611e8a565b905082815260208101848484011115611f1457611f13611e25565b5b611f1f848285611ed6565b509392505050565b600082601f830112611f3c57611f3b611e20565b5b8135611f4c848260208601611ee5565b91505092915050565b60008060008060808587031215611f6f57611f6e611a68565b5b6000611f7d87828801611cb5565b9450506020611f8e87828801611cb5565b9350506040611f9f87828801611c00565b925050606085013567ffffffffffffffff811115611fc057611fbf611a6d565b5b611fcc87828801611f27565b91505092959194509250565b60008060408385031215611fef57611fee611a68565b5b6000611ffd85828601611cb5565b925050602061200e85828601611cb5565b9150509250929050565b600067ffffffffffffffff82111561203357612032611e2a565b5b61203c82611b73565b9050602081019050919050565b600061205c61205784612018565b611e8a565b90508281526020810184848401111561207857612077611e25565b5b612083848285611ed6565b509392505050565b600082601f8301126120a05761209f611e20565b5b81356120b0848260208601612049565b91505092915050565b600080604083850312156120d0576120cf611a68565b5b60006120de85828601611cb5565b925050602083013567ffffffffffffffff8111156120ff576120fe611a6d565b5b61210b8582860161208b565b9150509250929050565b7f4e487b7100000000000000000000000000000000000000000000000000000000600052602260045260246000fd5b6000600282049050600182168061215c57607f821691505b60208210810361216f5761216e612115565b5b50919050565b600060608201905061218a6000830186611c74565b6121976020830185611d8a565b6121a46040830184611c74565b949350505050565b600081905092915050565b60006121c282611b2d565b6121cc81856121ac565b93506121dc818560208601611b49565b80840191505092915050565b60006121f482856121b7565b915061220082846121b7565b91508190509392505050565b7f4e487b7100000000000000000000000000000000000000000000000000000000600052601160045260246000fd5b600061224682611bdf565b915061225183611bdf565b92508282019050808211156122695761226861220c565b5b92915050565b600081519050919050565b600082825260208201905092915050565b60006122968261226f565b6122a0818561227a565b93506122b0818560208601611b49565b6122b981611b73565b840191505092915050565b60006080820190506122d96000830187611c74565b6122e66020830186611c74565b6122f36040830185611d8a565b8181036060830152612305818461228b565b905095945050505050565b60008151905061231f81611a9e565b92915050565b60006020828403121561233b5761233a611a68565b5b600061234984828501612310565b91505092915050565b60008190508160005260206000209050919050565b60006020601f8301049050919050565b600082821b905092915050565b6000600883026123b47fffffffffffffffffffffffffffffffffffffffffffffffffffffffffffffffff82612377565b6123be8683612377565b95508019841693508086168417925050509392505050565b6000819050919050565b60006123fb6123f66123f184611bdf565b6123d6565b611bdf565b9050919050565b6000819050919050565b612415836123e0565b61242961242182612402565b848454612384565b825550505050565b600090565b61243e612431565b61244981848461240c565b505050565b5b8181101561246d57612462600082612436565b60018101905061244f565b5050565b601f8211156124b25761248381612352565b61248c84612367565b8101602085101561249b578190505b6124af6124a785612367565b83018261244e565b50505b505050565b600082821c905092915050565b60006124d5600019846008026124b7565b1980831691505092915050565b60006124ee83836124c4565b9150826002028217905092915050565b61250782611b2d565b67ffffffffffffffff8111156125205761251f611e2a565b5b61252a8254612144565b612535828285612471565b600060209050601f8311600181146125685760008415612556578287015190505b61256085826124e2565b8655506125c8565b601f19841661257686612352565b60005b8281101561259e57848901518255600182019150602085019450602081019050612579565b868310156125bb57848901516125b7601f8916826124c4565b8355505b6001600288020188555050505b505050505050565b60006040820190506125e56000830185611c74565b6125f26020830184611d8a565b9392505050565b7f4e487b7100000000000000000000000000000000000000000000000000000000600052601260045260246000fdfea26469706673582212200eafaf995bae09add3b36884ba777a78ae01048cd1a7f48bccc80e50dddb6c6964736f6c634300081c0033",
  "linkReferences": {},
  "deployedLinkReferences": {}
}